:020000040800F2
:10400000800800209D410008B94D0008C14A000801
:104010001D4B0008494700086562000800000000C9
:10402000000000000000000000000000515B0008DC
:104030004D47000800000000A5520008B95C0008C8
:10404000B7410008B7410008B7410008B741000870
:10405000B7410008B7410008B7410008B741000860
:10406000B7410008B7410008B7410008B741000850
:10407000B7410008B7410008B7410008B741000840
:10408000B7410008B7410008B7410008B741000830
:10409000B7410008B7410008B7410008B741000820
:1040A000B7410008B7410008B7410008B741000810
:1040B000B7410008795D0008B7410008B741000822
:1040C000B7410008B7410008B7410008B7410008F0
:1040D000B7410008B7410008B74100084160000837
:1040E000B7410008B7410008B7410008B7410008D0
:1040F000B7410008B7410008B7410008B7410008C0
:10410000B7410008B7410008B7410008B7410008AF
:10411000B7410008B7410008B7410008B74100089F
:10412000B7410008B7410008B7410008B74100088F
:10413000B7410008B7410008B7410008B74100087F
:10414000B7410008B7410008B7410008B74100086F
:10415000B7410008B7410008B7410008B74100085F
:10416000B7410008B7410008B7410008B74100084F
:10417000B7410008B7410008B7410008B74100083F
:10418000B7410008B7410008DFF80CD000F03CFA56
:1041900000480047C5700008800800200648804796
:1041A00006480047FEE7FEE7FEE7FEE7FEE7FEE71C
:1041B000FEE7FEE7FEE7FEE7115D00088941000823
:1041C000D2B201E000F8012B491EFBD27047002259
:1041D000F6E710B513460A4604461946FFF7F0FF06
:1041E000204610BD00F0004230F000400AD0C10D62
:1041F00001F56071C0F3160042EA0151C2084007A0
:104200001143704700200146704730B50B46014608
:1042100000202022012409E021FA02F59D4205D365
:1042200003FA02F5491B04FA02F52844151EA2F10F
:104230000102F1DC30BD2DE9F05F05460020924619
:104240009B4688460646814640241BE02846414658
:104250004746224600F0F9F953465A46C01A9141A2
:1042600010D311461846224600F0E0F92D1A67EBEC
:1042700001084F4622460120002100F0D7F917EB34
:1042800000094E41201EA4F10104DFDC48463146FE
:104290002A464346BDE8F09F2DE9FE4F804681EA5D
:1042A0000300C00F0C46009021F0004123F00045B0
:1042B000B8EB0200A94105D24046214690461C4673
:1042C0000B46024623F00040104347D0270DC7F3AA
:1042D0000A00C3F30A510290401A019040286BDA99
:1042E000C3F3130040F4801B0098924620B10023D2
:1042F000D2EB030A63EB0B0B01985946C0F1400265
:10430000504600F093F906460D4650465946019A2C
:1043100000F0ABF910EB08006141002487EA11526C
:1043200084EAE7731A4340D0009A62B3019A012AE3
:104330004FEA075215DC001B61EB02014FF000420F
:1043400002EA0752CDE90042001C41F580113246D5
:104350002B4600F0ABF903B0BDE8F08F4046214694
:10436000F9E7001B61EB0201001C41F58013001806
:104370005B412018A2F5001747EB030140EAD57016
:10438000B6196D4111E06D084FEA360645EAC07571
:104390004FEA0752001B61EB0201001C41F580113E
:1043A00049084FEA30000019514132462B4603B00C
:1043B000BDE8F04F00F06BB90098012240000023E7
:1043C000D0EB020263EBE073009821464FEAE07401
:1043D000B8EB000061EB0401E9E783F000435BE721
:1043E00081F0004158E72DE9FE4F81EA030404F013
:1043F000004421F0004100944FF0000B23F00043F3
:1044000050EA01045ED052EA03045BD0C3F30A54BD
:10441000C1F30A552C44A4F2F3340194A0FB0254D6
:10442000C1F3130141F48011C3F3130343F4801368
:1044300001FB024400FB034E840A970A44EA8154BC
:1044400047EA8357A4FB076802958D0A05FB078599
:104450004FEA932C04FB0C542705029D4FEA0658A3
:1044600047EA1637B5EB08056EEB070C870E920E80
:1044700047EA811742EA8312A7FB0201B6EB0B0160
:1044800064EB00042B0D43EA0C335E1844EB1C5024
:10449000DA465146E7FB0201C5F313044FEA0B333A
:1044A00043EA14534FEA0432019C43EA0603A4F1A1
:1044B0000C040294009CCDE900B400F0F7F803B0BE
:1044C000BDE8F08F00200146F9E72DE9F04D81EAC3
:1044D000030404F0004B21F0004514464FF0000A9D
:1044E00023F0004150EA050220D054EA01021DD019
:1044F000C5F30A570246C5F31303C1F31300C1F312
:104500000A5640F4801543F48013A7EB0608101BED
:10451000D64608F2FD3873EB050002D308F1010816
:1045200001E092185B41B8F1000F03DA0020014668
:10453000BDE8F08D00204FF48011064684460EE061
:10454000171B73EB050705D3121B63EB050306432B
:104550004CEA010C49084FEA300092185B4150EADE
:104560000107EDD152EA030012D082EA040083EA87
:104570000501084305D0101BAB4106D201220023E0
:1045800006E000224FF0004302E06FF001025310FA
:104590001AEB06004CEB085110EB0A0041EB0B0143
:1045A000BDE8F04D00F073B8C1F30A52C1F3130136
:1045B00040F2FF3341F480119A4202DA00200146B2
:1045C000704740F233439A42A2F2334202DC524235
:1045D00000F03BB800F02AB830B5041E71F10004B9
:1045E00004DB4FF00044404264EB0101141E73F100
:1045F000000405DB1C464FF00043524263EB04030A
:10460000994208BF904230BD064C074D06E0E06875
:1046100040F0010394E8070098471034AC42F6D309
:10462000FFF7B6FDBC890008DC890008202A04DBFE
:10463000203A00FA02F1002070479140C2F12003B5
:1046400020FA03F3194390407047202A04DB203AF4
:1046500021FA02F00021704721FA02F3D040C2F1A2
:1046600020029140084319467047202A06DBCB17E9
:10467000203A41FA02F043EAE07306E041FA02F31D
:10468000D040C2F12002914008431946704710B54E
:10469000141E73F1000408DA401C41F10001921865
:1046A0005B411A4301D120F0010010BD2DE9F04D0E
:1046B00092469B4611B1B1FA81F202E0B0FA80F263
:1046C00020329046FFF7B2FF04460F4640EA0A0048
:1046D00041EA0B0153465A46084313D0114653EAA8
:1046E000010019D0C8F140025046FFF7AEFF054661
:1046F0000E46504659464246FFF798FF084305D0FC
:10470000012004E020463946BDE8F08D0020054335
:1047100046EAE0762C4337430A986305E40AA0EBA7
:1047200008000022FD0A44EA47540A3002D500205E
:104730000146E9E7010510196941DDE9084500195D
:104740006941BDE8F04DA2E700BFFEE770474FF0BA
:10475000E020006940F004004FF0E0210861A7204C
:104760004861704730B10749096841F48061054AE2
:10477000116005E00349096821F48061014A116074
:1047800070470000003C024070B504460A4600260F
:10479000092502B909E0012A01D1160205E0022A21
:1047A00001D1160201E04FF4407600F09FF8054673
:1047B000092D28D11548006820F44070134908607D
:1047C00008460068304308600846006820F0F8009A
:1047D00008600846006844F0020108430B4908607D
:1047E0000846006840F48030086000F07FF8054615
:1047F0000648006820F00200044908600846006886
:1048000020F0F8000860284670BD0000103C02400F
:1048100009201349096801F48031B1F5803F01D1C5
:1048200001201CE00E49096801F0100109B10620C1
:1048300015E00B49096801F4807109B102200EE00E
:104840000749096801F0E00109B1072007E00449C0
:10485000096801F0020109B1082000E00920704751
:104860000C3C02400348006840F0004001490860E9
:1048700070470000103C024030B502460C46092546
:1048800000F034F80546092D19D10E48006820F4CF
:1048900040700C4908600846006840F400700860E9
:1048A0000846006840F001000860146000F01EF83F
:1048B00005460448006820F00100024908602846C7
:1048C00030BD0000103C02400548006800F0004088
:1048D00028B1044802490C39086003480860704751
:1048E000103C024023016745AB89EFCD08B5092094
:1048F0000090FFF78DFF009002E0FFF789FF009026
:104900009DF800000128F8D09DF8000008BD0000C7
:104910001CB50121084600F0E5FC0121102000F043
:10492000E1FC0320009001208DF8040002208DF8A6
:10493000050000208DF806008DF807006946204824
:1049400000F042F803211E4800F0B4F84FF4C060B4
:10495000009002208DF804008DF8050000208DF8ED
:10496000060001208DF807006946164800F02CF873
:1049700007220921134800F06FF807220A21114885
:1049800000F06AF84FF4C060009002208DF8040037
:104990008DF8050000208DF8060001208DF8070035
:1049A0006946084800F010F807220921054800F080
:1049B00053F807220A21034800F04EF81CBD0000FE
:1049C0000010024000000240F0B50A46002100231A
:1049D000002400BF3DE0012505FA01F3156805EA52
:1049E00003049C4234D105684F000326BE40B54302
:1049F000056015794E00B5400668354305601579A8
:104A0000012D02D01579022D16D185684F0003269D
:104A1000BE40B543856055794E00B5408668354344
:104A20008560456801268E40B543456045689679A6
:104A30008E40B6B235434560C5684F000326BE4080
:104A4000B543C560D5794E00B540C6683543C560ED
:104A5000491C1029BFD3F0BDF0B5002300244D0739
:104A6000ED0E02FA05F3CE1000F1200555F82650A0
:104A70004E07F70E0F26BE40B543CF1000F12006BB
:104A800046F82750CE1000F1200555F8265045EA8B
:104A90000304CE1000F1200545F82640F0BD024683
:104AA000002013690B400BB1012000E0002070478B
:104AB000418370470183704742694A4042617047B1
:104AC00000BFFEE710B51448006820F0C00012498E
:104AD00008600846006840F04000086008210E4861
:104AE000FFF7E6FF052002F0ACF904210A48FFF7C2
:104AF000DFFF052002F0A5F904210748FFF7DAFFE0
:104B0000052002F09EF904210348FFF7D1FF05209C
:104B100002F097F910BD0000000C024000BFFEE754
:104B20001CB50121022000F0DDFB0121102000F066
:104B3000D9FB4FF48050009001208DF80400022032
:104B40008DF8050000208DF806008DF807006946F5
:104B50001048FFF739FF4FF40070009069460E4887
:104B6000FFF732FF4FF480510A48FFF7A3FF4FF4DD
:104B700000710948FFF79EFF00F062F800F010F89E
:104B80000648008B20F480500449088300F074F834
:104B90001CBD000000100240000402403C00002048
:104BA00010B50AA001F060FB4FF480510D48FFF7EB
:104BB0007FFFFA2002F020F94FF480510948FFF7F7
:104BC00079FF4FF47A7002F017F910BD54697073D1
:104BD0003A09455350383236365F52657365740D65
:104BE0000A0000000010024010B500201AE012492F
:104BF0000A5C1249B1F80032B1F80012491C0F4C9E
:104C0000A4F800122146CA540A46B2F80012CA1784
:104C100001EB12621212A1EB02222346A3F800223A
:104C2000411CC8B20328E2DB0449B1F80412491C54
:104C3000024AA2F8041210BDE07700086A020020C0
:104C400010B500F057F810BD70B504460D460026AB
:104C50000DE014F8011B074801F000FB00BF4021E4
:104C6000044801F05FFA0028F9D0701C86B2AE4209
:104C7000EFDB70BD004800401FB54FF4A06000F0AE
:104C8000DFF80121022000F03DFB1D208DF800001F
:104C900001208DF8010000208DF8020001208DF820
:104CA0000300684600F090F8114801F0B5F842F2B0
:104CB0001070029042F2CF00ADF804000020ADF871
:104CC0000C00ADF806008DF80E0001A9084801F0AF
:104CD00075F90121064801F08FF8012211460448B8
:104CE00001F062F90121024801F089F81FBD0000BE
:104CF0000004004000B587B00121082000F0F2FA5E
:104D00000121880400F0FEFA4FF4A06000F098F84A
:104D10004FF44070059002208DF818008DF81900AE
:104D200000208DF81A0001208DF81B0005A92048ED
:104D3000FFF74AFE072208211D48FFF78DFE0722D4
:104D400009211B48FFF788FE27208DF8100000205E
:104D50008DF811008DF8120001208DF8130004A8C1
:104D600000F032F84FF4165000900020ADF8040027
:104D7000ADF80600ADF80800ADF80C000C20ADF859
:104D80000A0069460B4801F0FFF90121094801F0CA
:104D90009CF9012240F22441064801F0D0F9012299
:104DA00040F22551034801F0CAF907B000BD0000E8
:104DB000000C024000480040704710B54FF480419D
:104DC000480300F047F810BD70B5002100230F2202
:104DD000C4781CB3174C246804F4E064C4F5E064A0
:104DE000C4F30721C1F10404E3B20A4144789C40B2
:104DF000E1B28478144021430C07210E0E4C057853
:104E00006155047804F01F050124AC4005786D114C
:104E1000AD0005F1E025C5F8004109E0047804F093
:104E20001F050124AC40054D0678761145F8264053
:104E300070BD00000CED00E000E400E080E100E067
:104E400002490143024A1160704700000000FA0560
:104E50000CED00E0024A0A400243024B1A60704720
:104E600080FFFF1F08ED00E010B51148006820F03A
:104E7000C0000F490860084600680860052001F07E
:104E8000E0FF04210A48FFF713FE052001F0D9FFD7
:104E900004210748FFF70EFE052001F0D2FF042190
:104EA0000348FFF705FE052001F0CBFF10BD000011
:104EB000000C024070B5002419E004F1B001C8B242
:104EC000002100F09BF90021084600F097F900212D
:104ED000102000F093F9002505E00121002000F0EA
:104EE0008DF9681CC5B2802DF7DB601CC4B2082C9C
:104EF000E3DB70BD1CB50121042000F0F3F90121B2
:104F0000082000F0EFF90320009001208DF8040044
:104F100002208DF8050000208DF806008DF80700AE
:104F200069460F48FFF750FD03210D48FFF7C2FD0A
:104F30004FF4A050009001208DF8040002208DF85D
:104F4000050000208DF806008DF807006946054829
:104F5000FFF73AFD4FF4A0510248FFF7ABFD1CBD2F
:104F6000000C02400008024010B5FFF7C3FF01210A
:104F70004A48FFF79FFD642001F03EFF01214748AA
:104F8000FFF796FDC82001F037FF01214348FFF7E6
:104F900091FD0021AE2000F031F90021084600F01B
:104FA0002DF90021102000F029F90021402000F007
:104FB00025F90021812000F021F90021CF2000F007
:104FC0001DF90021A12000F019F90021C82000F0EE
:104FD00015F90021A62000F011F90021A82000F009
:104FE0000DF900213F2000F009F90021D32000F045
:104FF00005F90021084600F001F90021D52000F054
:10500000FDF80021802000F0F9F80021D92000F0FF
:10501000F5F80021F12000F0F1F80021DA2000F08D
:10502000EDF80021122000F0E9F80021DB2000F06B
:10503000E5F80021402000F0E1F80021202000F0F8
:10504000DDF80021022000F0D9F800218D2000F0C9
:10505000D5F80021142000F0D1F80021A42000F0A0
:10506000CDF80021A62000F0C9F80021AF2000F003
:10507000C5F80021AF2000F0C1F8FFF71BFF0021A9
:10508000084600F00DF800F0EFF840F2DC5001F0B7
:10509000B3FEFFF70FFF02F0E3F910BD000C024072
:1050A00070B504460D4605F1B001C8B2002100F00C
:1050B000A5F8102141EA1410002100F09FF804F037
:1050C0000F0141F00100002100F098F870BD0000D0
:1050D0002DE9F04107460E46904600250024A8F130
:1050E0002000C5B27F2F02DD0027B01CC6B23146BA
:1050F0003846FFF7D5FF002408E004EB05110F4AFE
:10510000505C012100F07AF8601CC4B2082CF4DB7A
:10511000701CC1B23846FFF7C3FF002409E004EB5E
:1051200005110831054A505C012100F067F8601C48
:10513000C4B2082CF3DBBDE8F08100000C8200084B
:105140002DE9FF5F074691461D460E9E4FF0000A6F
:10515000002433E0281B401EC1B20A2002F074F97B
:10516000B9FBF0F00A21B0FBF1F201FB1208BAF131
:10517000000F13D1681EA04210DDB8F1000F0BD153
:10518000B34606EBDB71491001FB0471C8B2202263
:105190000199FFF79DFF0FE04FF0010AB34606EBC0
:1051A000DB71491001FB0471C8B208F13001CAB2C9
:1051B0000199FFF78DFF00BF601CC4B2AC42C9DB90
:1051C000BDE8FF9F2DE9F04104460F461546002635
:1051D0000EE0AA5D39462046FFF77AFF04F1080089
:1051E000C4B2782C02DD0024B81CC7B2701CC6B251
:1051F000A85D0028EDD1BDE8F081000070B504463F
:105200000E4626B102211648FFF754FC03E00221A6
:105210001348FFF74DFC00251BE04FF48061114857
:10522000FFF746FC04F0800028B14FF480510D4890
:10523000FFF740FC04E04FF480510A48FFF738FCC8
:105240004FF480610748FFF735FC6006040E681CC8
:10525000C5B2082DE1DB02210148FFF72BFC70BD30
:10526000000C02400008024010B507A202210820ED
:10527000FFF7A8FF08A206212320FFF7A3FF0120C4
:105280000749087010BD00004A696E68616F2053BD
:10529000797354656D00000055434F535F494900D1
:1052A00064000020704700000B4909680B4A12682F
:1052B00091420FD008490A6809498A4202D38739C6
:1052C000054A116004490968087803490968491CBE
:1052D000014A1160704700002800002024000020CF
:1052E0001701002029B1064A12680243044B1A60D4
:1052F00004E0034A12688243014B1A6070470000C1
:105300003038024029B1064A12680243044B1A6041
:1053100004E0034A12688243014B1A6070470000A0
:105320004038024029B1064A12680243044B1A6011
:1053300004E0034A12688243014B1A607047000080
:105340002038024029B1064A12680243044B1A6011
:1053500004E0034A12688243014B1A607047000060
:105360004438024029B1064A12680243044B1A60CD
:1053700004E0034A12688243014B1A607047000040
:105380002438024008B500F02FF8012000F006F99B
:1053900000BF00F047F90128FBD1072002234FF49A
:1053A000A87208210090C80400F01EF9012000F046
:1053B00015F900BF392000F0BDF80028FAD002200E
:1053C00000F024F900BF00F0D5F80828FBD1002038
:1053D00000F0D8F84FF4A05000F0E8F84FF48050F7
:1053E00000F0F0F808BD00001448006840F001002B
:1053F0001249086000201149083108600F48006810
:105400000F4908400D4908600E48091D08600E4804
:105410000A49843108600B481038091D08600748A4
:10542000006820F4802005490860002003490C3101
:10543000086002498C310860704700000038024063
:10544000FFFFF6EA1030002400300020F0B5002104
:1054500000220024022500260223324F3F6807F075
:105460000C0121B1042905D0082937D105E02E4FC0
:10547000076036E02D4F076033E02A4F3F1F3F683B
:10548000C7F38056274F3F1F3F6807F03F036EB1B9
:10549000264FB7FBF3F7DFF88CC0ACF1040CDCF857
:1054A00000C0CCF3881C07FB0CF40CE01E4FB7FBCC
:1054B000F3F7DFF870C0ACF1040CDCF800C0CCF3FB
:1054C000881C07FB0CF4174F3F1F3F68C7F30147C9
:1054D0007F1C7D00B4FBF5F7076002E0124F076008
:1054E00000BF00BF0F4F3F6807F0F0010909104FE0
:1054F0007A5C0768D74047600A4F3F6807F4E0517D
:10550000890A0B4F7A5C4768D7408760054F3F6830
:1055100007F46041490B064F7A5C4768D740C76083
:10552000F0BD0000083802400024F40000127A00A8
:105530000000002010B501460022002300204A117F
:10554000012A02D10A4C236808E0022A03D1084C40
:105550007034236802E0064C7434236801F01F02A3
:10556000012494401C400CB1012000E0002010BD3B
:10557000003802400248006800F00C00704700004C
:105580000838024001460020034A106820F0F0006D
:105590000843106070470000083802400021024AAA
:1055A0001170114608707047023802400146002011
:1055B000034A106820F4E050084310607047000070
:1055C0000838024001460020034A106820F4604079
:1055D00040EAC1001060704708380240014908667F
:1055E000704700000000474270B5049C41EA8215F4
:1055F0000126C6EB530645EA0645054345EA046520
:10560000014E356070BD00000438024001460020A4
:10561000034A106820F00300084310607047000040
:105620000838024038B5002000900024002500BF53
:105630003120FFF77FFF05460098401C009000983E
:10564000B0F5A04F01D0002DF2D03120FFF772FF4E
:1056500008B1012400E00024204638BD10B52DED2E
:10566000028B82B0002400F08FF901A9F32000F032
:1056700093F804465CB9002037494860088100214E
:1056800036480172002002B0BDEC028B10BDBDF89F
:10569000040040F2DD61484340F2D511C1EB2040E7
:1056A0002D494860BDF8040000EE100AB8EE400A2B
:1056B000DFED2B0A20EE200ADFED2A0A80EE201A09
:1056C0009FED290A31EE400A284880ED000A90ED4E
:1056D000000ABCEEC00A10EE100AC1B21F480172E7
:1056E00001A9F52000F058F8BDF8040040F271213E
:1056F00048433C21C1EBE03017490881BDF8040064
:1057000000EE100AB8EE400ADFED190A60EE200A3A
:105710009FED181A80EE810AF1EE080A30EE600A59
:10572000154880ED000A11480068FEF75BFD41EC6A
:10573000180B53EC182B11A000F096FD0E480068D2
:10574000FEF750FD41EC180B53EC182B0FA000F0A6
:105750008BFD012097E7000070040020120000205C
:1057600052B82F430000804766663B425C00002031
:105770000000FA4200FF7F47600000200D0A5465D8
:105780006D703A252E32660D0A00000048756D696D
:105790003A252E32660D0A0038B505460C4600F053
:1057A000C1F8802000F084F800F04AFA08B1002027
:1057B00038BD284600F07CF800F042FA142001F0D1
:1057C0001BFB00F0AFF8812000F072F800F038FA0F
:1057D00000F038F88DF80000FFF774F900F032F8A7
:1057E0008DF80100FFF740FB00F0CEF89DF80110A6
:1057F0009DF8000001EB002020800120D8E7000088
:105800001CB51C20009001208DF8040002208DF8AA
:10581000050000208DF806008DF80700694608484D
:10582000FFF7D2F804210648FFF744F9082104489D
:10583000FFF740F910210248FFF73CF91CBD0000BA
:10584000000C024070B500241848006820F0C00029
:105850001649086008460068086004211348FFF7ED
:1058600027F908251AE004211048FFF721F905203F
:1058700001F0E7FA04210D48FFF71CF9052001F0BB
:10588000E0FA08210948FFF70AF908B144F00104D9
:10589000012D01D06006040E681EC5B2002DE2DCA9
:1058A00004210248FFF704F9204670BD000C0240B5
:1058B00070B505461A48006820F0C0001849086015
:1058C0000846006840F04000086004211448FFF7D3
:1058D000EFF8802421E004EA050020B108211048F7
:1058E000FFF7E8F803E008210D48FFF7E1F805208D
:1058F00001F0A7FA04210A48FFF7DCF8052001F0BF
:10590000A0FA04210648FFF7D3F8052001F099FA20
:1059100008210348FFF7CCF86410002CDBDC70BDD5
:10592000000C024010B51748006820F0C00015496F
:1059300008600846006840F04000086004211148F3
:10594000FFF7B6F8052001F07CFA08210D48FFF7B3
:10595000B1F8052001F075FA04210A48FFF7AAF80A
:10596000052001F06EFA08210648FFF7A1F805208E
:1059700001F067FA04210348FFF79AF8052001F0C7
:1059800060FA10BD000C024010B51848006820F005
:10599000C000164908600846006840F040000860F2
:1059A00008211248FFF784F804211048FFF780F817
:1059B000052001F046FA04210C48FFF77BF805208A
:1059C00001F03FFA08210948FFF774F8052001F0BB
:1059D00038FA04210548FFF76BF8052001F031FA89
:1059E00008210248FFF764F810BD0000000C0240D7
:1059F00001461C48814201D2002070471A4881426A
:105A000001D20820F9E71948814201D21020F4E7B9
:105A10001748814201D21820EFE71648814201D28F
:105A20002020EAE71448814201D22820E5E7134804
:105A3000814201D23020E0E71148814201D2382072
:105A4000DBE71048814201D24020D6E70E48814270
:105A500001D24820D1E70D48814201D25020CCE745
:105A60005820CAE7004000080080000800C0000875
:105A700000000108000002080000040800000608F9
:105A80000000080800000A0800000C0800000E08CA
:105A900030B503460C461546002206E0184600F0D5
:105AA00007F844F822001B1D521CAA42F6D330BD51
:105AB00001460868704700002DE9F04704460E468D
:105AC00017464FF009080025A946B4F1006F02D32C
:105AD00004F0030008B1BDE8F087FEF7F5FE0020F2
:105AE000FEF740FE254604EB87091848854215D28B
:105AF00011E02846FFF7DCFF401C58B12846FFF7AD
:105B000077FF82460221FEF73FFE8046B8F1090F7B
:105B100001D002E02D1D4D45EBD300BFB8F1090FB8
:105B20000CD108E020463168FEF7A6FE092800D017
:105B300003E0241D361D4C45F4D300BF0120FEF7C1
:105B400011FEFEF78FFE00BFC5E700000000FF1F3B
:105B5000704700000CB500200190009034480068A8
:105B600040F480303249086000BF3148006800F4DA
:105B7000003000900198401C0190009818B90198DD
:105B8000B0F5A04FF1D12A48006800F4003010B100
:105B90000120009001E0002000900098012846D1EB
:105BA00023484030006840F080502149403108606F
:105BB0002048006840F440401E4908601C480830F6
:105BC00000681B49083108600846006840F400403E
:105BD00008600846006840F4A05008601648091F95
:105BE0000860081F006840F08070091F086000BF4F
:105BF0000F48006800F000700028F9D040F20570EE
:105C00000E4908600A480830006820F0030008497F
:105C1000083108600846006840F00200086000BFD4
:105C200003480830006800F00C000828F8D10CBDCB
:105C3000003802400070004019544007003C024008
:105C400010B51C48006820F0C0001A4908600846DA
:105C50000068086008211748FEF72CFF042115484A
:105C6000FEF726FF052001F0ECF804211148FEF7AD
:105C700021FF052001F0E5F800240FE008210D4880
:105C8000FEF70DFF18B1052001F0DBF800E007E09A
:105C9000C82C01D1012010BD601CC4B2FE2CEDDB6C
:105CA00000BF04210348FEF703FF052001F0C9F8F7
:105CB0000020F0E7000C02407047000010B5FFF72D
:105CC00061FBFEF725FEFFF778F800F00BFAFEF710
:105CD0003EFD02A000F0C8FA10BD00000D0A0D0A3A
:105CE0002A2A2A2A2A2A2A2A2A2A2A53544D33328D
:105CF0002053797374656D20436F6E666967212A3E
:105D00002A2A2A2A2A2A2A2A2A2A0D0A0D0A0000C1
:105D100010B51548006840F4700013490860134836
:105D2000006840F001001149086000200F49083167
:105D300008600E4800680E4908400C4908600D488C
:105D4000091D0860081F006820F48020091F0860F2
:105D5000002006490C310860FFF7FCFE4FF00060A0
:105D600001498039086010BD88ED00E0003802402C
:105D7000FFFFF6FE1030002410B501211A4800F094
:105D80003BF81A48007830B1012809D0022819D010
:105D9000032821D11BE001211548FEF78DFE20E0EC
:105DA00014480088022807D101211148FEF784FE1B
:105DB00000201049088004E00E480088401C0D496E
:105DC00008800EE001210A48FEF774FE09E0012177
:105DD0000748FEF76DFE04E001210548FEF76AFE64
:105DE00000BF00BF10BD0000000400405A000020AA
:105DF0000010024058000020CA430282704721B1BF
:105E0000028842F00102028004E002884FF6FE732D
:105E10001A4002807047000010B50446554884427D
:105E200008D101210846FFF79DFA00210120FFF764
:105E300099FA9DE0B4F1804F08D101210846FFF79F
:105E400071FA00210120FFF76DFA91E04A4884427F
:105E500008D101210220FFF765FA00210220FFF797
:105E600061FA85E04548844208D101210420FFF70A
:105E700059FA00210420FFF755FA79E0404884429E
:105E800008D101210820FFF74DFA00210820FFF773
:105E900049FA6DE03B48844208D101211020FFF708
:105EA00041FA00211020FFF73DFA61E036488442B4
:105EB00008D101212020FFF735FA00212020FFF72B
:105EC00031FA55E03148844208D101210220FFF720
:105ED00049FA00210220FFF745FA49E02C488442A4
:105EE00009D101210804FFF73DFA00214FF4803069
:105EF000FFF738FA3CE02748844209D101214804E1
:105F0000FFF730FA00214FF40030FFF72BFA2FE0B3
:105F10002148844209D101218804FFF723FA002196
:105F20004FF48020FFF71EFA22E01C48844208D17B
:105F300001214020FFF7F6F900214020FFF7F2F998
:105F400016E01748844208D101218020FFF7EAF9C2
:105F500000218020FFF7E6F90AE01248844207D1C9
:105F600001218015FFF7DEF90021A015FFF7DAF90E
:105F700010BD000000000140000400400008004087
:105F8000000C0040001000400014004000040140DC
:105F9000004001400044014000480140001800401A
:105FA000001C0040002000401AB183890B4383810C
:105FB00002E083898B4383817047000000220288BE
:105FC000184B98420ED0184B98420BD0B0F1804F2E
:105FD00008D0164B984205D0154B984202D0154B6D
:105FE000984204D14FF68F731A404B881A43124BD4
:105FF000984207D0114B984204D04FF6FF431A4005
:106000000B891A4302804B68C3620B880385054BDA
:10601000984202D0044B984201D18B7A0386012327
:1060200083827047000001400004014000040040EA
:1060300000080040000C0040001000400014004028
:1060400010B5002420211A4800F06CF800B320217C
:10605000174800F031F81648001D0088C4B22046E9
:1060600001F0C0FA1348B0F80012B0F80002401C6A
:10607000104AA2F80002104644540146B1F800024A
:10608000C11700EB11610912A0EB0121A2F8001267
:106090001021074800F046F848B10548001D008867
:1060A00040F22441024800F007F8FEF79DFD10BDC4
:1060B000004800406A02002001F40072B2F5007F3F
:1060C00000D100BFCA430280704721B1828942F4E7
:1060D0000052828104E082894DF6FF731A4082816A
:1060E000704700001FB501211020FFF72BF94FF476
:1060F000E13000900020ADF80400ADF80600ADF8E6
:106100000800ADF80C000C20ADF80A006946044800
:1061100000F03AF801210248FFF7D7FF1FBD000049
:106120000010014002460020B1F5007F00D100BF01
:1061300013880B400BB1012000E000207047F0B540
:106140000346002400260025002040F66A17B942C5
:1061500000D100BF1846C1F3421401F01F06012709
:1061600007FA06F5012C01D10C3004E0022C01D114
:10617000103000E014301AB107682F43076002E0C6
:106180000768AF430760F0BD2DE9FF4705460E469F
:106190000024A14600BFA046B08900B100BF2C8AF0
:1061A00024F44054F08804432C82AC8941F20C6002
:1061B0008443B08831890843718908430443AC8122
:1061C000AC8A24F44074B0890443AC826846FFF77B
:1061D0003DF92048854202D01F48854202D1DDF8B2
:1061E0000C9001E0DDF80890A88900F4004040B16F
:1061F00009EBC90000EB091031684900B0FBF1F769
:1062000007E009EBC90000EB091031688900B0FB19
:10621000F1F76420B7FBF0F004012009642101FBD1
:106220001078A88900F4004040B1322000EBC8008B
:10623000B0FBF1F000F00700044308E0322000EB6F
:1062400008106421B0FBF1F000F00F0004432C8132
:10625000BDE8FF870010014000140140C1F30802AF
:106260008280704700BFFEE70FB4054B10B503A94D
:10627000044A029800F0DAF810BC5DF814FB000044
:10628000F16F00086800002002E008C8121F08C172
:10629000002AFAD170477047002001E001C1121FA7
:1062A000002AFBD1704700002DE9FF5F82B000217A
:1062B000DDE90430020DDDF840B0034318D044F6A8
:1062C0001050A2F2FF3242431514119801281FD03A
:1062D000A5EB0B00401C5FEA000A4FF000064E4F92
:1062E000DFF83891B046504615D5CAF1000413E0E6
:1062F000119801244AA3012801D16FEA0B010298E9
:10630000119AC0E90031C0E9024206B0BDE8F09F31
:10631000CBF10000DFE704460021404A491842EB78
:106320000450CDE9001012E0E00707D032463B46AA
:1063300040464946FEF757F88046894632463B4676
:1063400010461946FEF74FF806460F466410002C1B
:10635000EAD1DDE90401DDE90023BAF1000F06DA34
:10636000FEF741F842464B46FEF73DF805E0FEF7E2
:10637000ACF842464B46FEF7A8F804460E4600220B
:10638000284BFEF729F903D84FF0FF30014607E00C
:106390000022254B20463146FDF77EFFFEF704F92B
:1063A000102409E0002C0ADB0A220023FDF743FF3A
:1063B000039B30321A55641E50EA0102F2D1641C6C
:1063C000039AC4F111031444119A012A03D0012243
:1063D00008430DD10AE0084304D000204FF0110B10
:1063E000119072E7A3EB0B056D1E0DE05B4504DD1C
:1063F0004FF0000205F1010504E003DA4FF000025E
:10640000A5F10105002AECD002981199C0E90231EA
:10641000C0E9004579E70000000014400000F03FAB
:10642000300000000000F0430000E03F2DE9FF4F86
:1064300095B09B468946064600250FE2252877D170
:1064400000242746F84A0121059400E0044316F889
:10645000013F203B01FA03F01042F7D130782A289F
:1064600011D06FF02F033078A0F13002092A16D82E
:10647000059A44F0020402EB820203EB420210444C
:10648000761C0590EFE759F8042B0592002A03DAF1
:10649000504244F40054059044F00204761C3078D5
:1064A0002E2816D116F8010F44F004042A280DD026
:1064B0006FF02F023078A0F13003092B09D807EBD9
:1064C000870302EB4303C718761CF3E759F8047BF4
:1064D000761C30786C280FD006DC4C2817D0682842
:1064E0000DD06A2814D104E0742810D07A280FD176
:1064F0000DE044F400140AE044F4801401E044F494
:1065000040147278824202D104F58014761C761C05
:10651000307866280BD013DC582877D009DC0028A7
:1065200075D04528F6D04628F4D047281AD19DE1E9
:1065300018E0632835D0642879D0652812D195E118
:10654000702873D008DC6728F1D069286FD06E28D6
:106550000DD06F2806D1B5E073282CD0752875D0E2
:10656000782874D05A46179990476D1C75E1C4F38A
:106570000250022809D003280DD0D9F800100428B1
:106580000DD00D6009F1040967E1D9F80010EA1790
:10659000C1E90052F6E7D9F800100D80F2E70D705E
:1065A000F0E719F8041B8DF8001000208DF80100A9
:1065B000EA46012003E059F804AB4FF0FF306107D1
:1065C0004FF0000102D40DE008F101018846B94204
:1065D0000FDA8045F8DB1AF808100029F4D108E03A
:1065E00008F1010188468142FADB1AF808100029F7
:1065F000F6D105985B46A0EB080721463846179A66
:1066000000F094FA284400EB080507E04DE029E18A
:106610000DE01AF8010B5A4617999047B8F1010896
:10662000F7D25B4621463846179A13E142E00A2228
:106630000092C4F302524FF0000A022A08D059F81F
:1066400004CB032A4FEAEC710AD00DE029E02AE0DE
:1066500009F1070121F00702F2E802C1914609E0C1
:106660000FFA8CFC4FEAEC71042A03D14FFA8CFC30
:106670004FEAEC71002907DA0A460021DCF1000C30
:1066800061EB02012D2202E0220504D52B228DF8B8
:106690000420012203E0E20701D02022F7E7904620
:1066A00059E00A2102E010220DE010214FF0000A0B
:1066B00000910BE010224FF0000A44F00404082778
:1066C000009203E008224FF0000A0092C4F3025245
:1066D000022A05D059F804CB0021032A08D009E08A
:1066E00009F1070121F00702F2E802C1914605E035
:1066F0001FFA8CFC042A01D10CF0FF0C4FF00008AB
:10670000220728D5702806D0009B83F0100353EA97
:106710000A0305D00EE040228DF80420012208E093
:106720005CEA010206D030228DF804208DF80500C5
:1067300002229046009B83F0080353EA0A030AD121
:106740005CEA010201D1620705D530228DF80420F0
:106750004FF001087F1E582804D034A003900EA8E3
:1067600002900DE036A0F9E753466046009AFDF727
:1067700062FD84460398825C0298401E029002707B
:106780005CEA0100F0D1029806A9081A00F1200A7B
:10679000600702D524F4803400E00127574502DD6C
:1067A000A7EB0A0000E0002000EB0A01009005982A
:1067B0004144401A0590E00306D45B462146179AEF
:1067C000059800F0B3F90544002706E001A85A46F1
:1067D000C05D179990476D1C7F1C4745F6DBE003B1
:1067E0000CD55B462146179A059800F09FF90544A1
:1067F00004E030205A46179990476D1C0099481EB6
:1068000000900029F5DC08E0029802995A460078C9
:10681000491C0291179990476D1CBAF10001AAF129
:10682000010AF1DC65E10000092801003031323352
:1068300034353637383961626364656600000000BC
:1068400030313233343536373839414243444546A6
:106850000000000000F058F90544761C307800284C
:106860007FF4ECAD19B02846BDE8F08F620700D484
:10687000062709F1070222F0070CFCE80223E14693
:1068800003F000485FEA080C02D00FF2702C0DE014
:106890005FEA045C02D50FF2682C07E05FEAC47C73
:1068A00002D00FF2602C01E0AFF2700C4FF0FF3815
:1068B00023F00043CDF850C065280CD006DC4528F5
:1068C00009D046281DD047283DD13DE0662818D084
:1068D00067287ED138E00021112F01DB112000E074
:1068E000781CCDE9000106A90EA8FFF7DDFCDDE963
:1068F0000F010E9A03910021009207F1010A049101
:106900004DE04FF000400097CDE9011006A90EA818
:10691000FFF7CAFCDDE90F0203920E9B11990022DA
:10692000DDF80CA00093049211B9791C00EB010A68
:10693000B7EB0A0004D4C0F1FF3007F1010A04905C
:10694000AAEB0700019044E0012F00DA01270021A3
:10695000112F01DD112000E03846CDE9000106A924
:106960000EA8FFF7A1FCDDE90F010E9A03910021AB
:1069700004910092BA4621070CD40399514500DADC
:106980008A46BAF1010F05DD009AAAF10101515CB6
:10699000302908D0B84202DA10F1040F06DA0121DA
:1069A000CDE9011015E0AAF10101E9E7002805DCB5
:1069B000049901440491AAEB000102E0411C5145F5
:1069C00000DD8A460499401A401C01904FF00040B7
:1069D0000290200704D40198504501DBCDF80480D3
:1069E00000208DF84F0002980DF14F07B0F1004FD5
:1069F00025D02B200E9002984FF0020800280CDAC8
:106A0000404202902D200E9007E00A210298FDF7E7
:106A1000FCFB3031029007F8011DB8F10001A8F12C
:106A20000108F2DC02980028EFD1791E0E98087058
:106A3000307800F0200040F0450007F8020D12A861
:106A4000C01B00F107081498007800B1012000EB8A
:106A50000A01019801EBE07105984144401A401E7B
:106A60000590E00306D45B462146179A059800F08E
:106A70005DF805441498007818B15A461799904764
:106A80006D1CE00324D55B462146179A059800F05B
:106A90004DF805441CE00498002807DBDDE90301FC
:106AA000884203DD0098405C179901E01799302077
:106AB0005A469047049805F10105401C049001983E
:106AC000401E019004D12E205A46179990476D1C04
:106AD000BAF10001AAF1010ADDDC05E017F8010BAB
:106AE0005A46179990476D1CB8F10001A8F10108AA
:106AF000F4DC5B462146179A0598ABE62D000000B2
:106B00002B000000200000002DE9F0410446002584
:106B10001E461746880404D405E039462020B047B5
:106B20006D1C641EF9D52846BDE8F0812DE9F041C1
:106B3000044600251E469046C80301D5302700E0D4
:106B40002027880404D505E041463846B0476D1C2F
:106B5000641EF9D52846BDE8F081000010B5FEF7A7
:106B60007DFD10488178012000F0DCFA0D48417964
:106B7000022000F095FB0B48017A032000F090FB07
:106B80000848C17A042000F0FFFA0648817B0920FA
:106B900000F0C8FA0348417C0C2000F01FFB00F015
:106BA0005FFC10BD120000200146002008780002A2
:106BB0004A78104300028A7810430002CA781043D2
:106BC000704700002DE9F84F04467149E01C11F8A8
:106BD00000A0BAF10F0F7DD2DFE80AF0080B0E110A
:106BE0001B1F23D649D64C81D6D6CA0000F050FAD6
:106BF000CBE000F0B1FCC8E000F034FAC5E0644935
:106C0000A01D085C634908700021032000F0C6FD48
:106C1000BBE0012060490870B7E001205F490870BF
:106C2000B3E05B49201D085C4FF6FF7101EA0028C4
:106C30005749601D085C40441FFA80F8002713E0A4
:106C4000A01D3844801C5249085C0502A01D384430
:106C5000C01C085C05442144891DC81900F0A6F831
:106C60000646281D384487B24745E9DB8DE0FFF72B
:106C700075FF8AE04649A01D085C4949086008463E
:106C80000068000208604249E01D085C4449096848
:106C900008434349086008460068000208603C4910
:106CA00004F10800085C3E49096808433C49086053
:106CB0000846006800020860354904F10900085CD4
:106CC0003749096808433649086000210A2000F066
:106CD00065FD00E058E00A203249087055E031486F
:106CE00000780A2843D101202F4908702849201D27
:106CF000085C4FF6FF7101EA00282549601D085C19
:106D000040441FFA80F8A01D0D5C2D02E01D085CB8
:106D10000543894604F108008144B8F1020F0DD102
:106D20001F480068854209D100222946484600F0E4
:106D3000F3FA064600201B4908700FE0A8F1040092
:106D4000B0F5807F06DC82B22946484600F0E4FABE
:106D5000064603E00020134908700026012E03D1E7
:106D600000210B2000F01AFD00200F4908700CE0F4
:106D70000749A01D11F800B0E01D085C00905846BE
:106D8000009900F077FC00E000BF00BFBDE8F88F7D
:106D9000170100202F0000202D0000202E000020D1
:106DA00034000020380000202C0000202DE9F0479E
:106DB0000446267894F80180A0784FF6FF7101EA26
:106DC0000025E078284485B2304600F031F90746C6
:106DD00007EB4700074908444078404502D00020AF
:106DE000BDE8F0872A46211D304600F04AF881466A
:106DF0004846F5E71200002001B54FF47A7100987B
:106E0000484300904FF0E020006940F001004FF04F
:106E1000E021086107E000BF4FF0E020006900F4C6
:106E200080300028F8D00098411E00910028F2D14F
:106E30004FF0E020006920F001004FF0E0210861F0
:106E400008BD01B54FF0E020006940F001004FF0AF
:106E5000E021086107E000BF4FF0E020006900F486
:106E600080300028F8D00098411E00910028F2D10F
:106E70004FF0E020006920F001004FF0E0210861B0
:106E800008BD2DE9F04105460E461746012D06D0F6
:106E9000022D0AD0042D0ED0092D18D111E039464B
:106EA000304600F065F8044612E03946304600F0FE
:106EB00085F804460CE03946304600F033F80446C5
:106EC00006E03946304600F007F8044600E000BF0F
:106ED00000BF2046BDE8F0812DE9F04106460F468F
:106EE0003946304600F06CFA05460C48857300F0D0
:106EF000B7FA25B902210A48FDF7DCFD03E00221BB
:106F00000748FDF7D5FD2946092000F00BF9044696
:106F1000012C01D1BDE8F0810020FBE71200002028
:106F2000001002402DE9F04106460F463946304632
:106F300000F049FA05460D48C57200F091FA25B1F6
:106F4000012D03D0022D03D101E002E001E000E0B9
:106F500000BF00BF2946042000F016F90446012CAA
:106F600001D1BDE8F0810020FBE700001200002005
:106F70002DE9F04106460F463946304600F020FA2A
:106F800005460C48857000F06BFA25B910210A48B7
:106F9000FDF790FD03E010210748FDF789FD294624
:106FA000012000F0BFF80446012C01D1BDE8F081BA
:106FB0000020FBE712000020000C02402DE9F04108
:106FC00005460E463146284600F000FA04460748BA
:106FD000447100F045FA2146022000F061F90746AD
:106FE000012F01D1BDE8F0810020FBE71200002055
:106FF00070B504460D46E1B20548FFF72FF900BF12
:1070000080210348FFF78EF80128F9D1204670BD92
:107010000010014030B502460020002305E012F8C0
:10702000015B2C18E0B25C1CA3B28B42F7DB30BDD5
:1070300070B5054600F014F80646002408E004EB9D
:1070400044000649085CA84200D103E0601CC4B2B9
:10705000B442F4DB00BF204670BD000012000020E7
:107060000620704710B500242146022000F096FB50
:1070700010BD00000448006804490968884201D036
:10708000012070470020FCE7240000202800002099
:1070900010B500240A48007840B90021204600F0CD
:1070A00099FAC4B201200649087004E00121204683
:1070B00000F090FAC4B22146002000F06FFB10BD32
:1070C000300000200A2214491448FEF7E1FC12485F
:1070D000006818B910480068401C50B124210E48BF
:1070E000FDF775F8FF200C4988710A220B48FEF75E
:1070F000E3FCFEF7E3FDFDF737FFFEF781FBFDF74D
:107100000FFD00F0A5FA05E000F0B8FA00F066F90E
:1071100003490870F8E700006C0000200000020836
:107120005A00002070B504460D4600261548007828
:10713000012800D170BD2146304600F04BFA0646CA
:107140000121304600F046FA06460021304600F0A4
:1071500041FA06460121304600F03CFA06462DB9B8
:107160000021304600F036FA064604E001213046A0
:1071700000F030FA06463146072000F00FFB0120F0
:10718000D8E700002C00002070B504460E4600250C
:1071900011480078012800D170BD2146284600F032
:1071A00019FA05460421284600F014FA0546002184
:1071B000284600F00FFA05460121284600F00AFA99
:1071C00005463146284600F005FA054629460720BF
:1071D00000F0E4FA0120DFE72C00002070B505463E
:1071E0000C4600262D480078012800D170BD2946A4
:1071F000304600F0EFF906460521304600F0EAF986
:1072000006460021304600F0E5F9064644F0FF004E
:10721000FF280AD10121304600F0DCF90646E1B230
:10722000304600F0D7F9064632E04FF6FF702043B3
:107230004FF6FF71884210D10221304600F0CAF9A2
:107240000646C4F30721304600F0C4F90646E1B211
:10725000304600F0BFF906461AE00421304600F03F
:10726000B9F90646210E304600F0B4F90646C4F3DB
:107270000741304600F0AEF90646C4F30721304618
:1072800000F0A8F90646E1B2304600F0A3F9064640
:107290003146072000F082FA0120A7E72C000020E9
:1072A00070B505460C4600261A480078012800D122
:1072B00070BD2946304600F08DF906460221304661
:1072C00000F088F906460021304600F083F90646B2
:1072D0000421304600F07EF90646210E304600F0CB
:1072E00079F90646C4F30741304600F073F90646C3
:1072F000C4F30721304600F06DF90646E1B230468E
:1073000000F068F906463146072000F047FA0120F0
:10731000CEE700002C0000202DE9F04105460E4686
:1073200014462CBB4FF05530204908600A222048F3
:10733000FEF7C2FB00BF00BF00BF00BF00BFBFF32E
:107340004F8F00BF00BF00BF1A48006800F4E06024
:1073500019490843001D1749086000BF00BF00BF5E
:10736000BFF34F8F00BF00BF00BF00E000BFFDE7CD
:10737000124FE11704EB91718910A4EB810139B12F
:107380002046E11704EB91718910491C8CB205E08D
:107390002046E11704EB9171C1F38F04B81922461E
:1073A0002946FEF789FB0120BDE8F0816C00002032
:1073B000000002080CED00E00000FA0500000108E2
:1073C00002461078704702461078704710B50346A1
:1073D0000C461846FFF7E8FB10BD00000148007896
:1073E000704700002F000020F0B505460E461346FA
:1073F0002A46344605B10EB90020F0BDA24202D99A
:10740000E018904208D2002103E0605C5054481C10
:1074100081B29942F9DB07E0194603E0481E275C78
:10742000175481B20029F9DC2846E6E7014600221C
:1074300009B900207047002200E0521C11F8013BFE
:10744000002BFAD11046F5E710B50246012000E006
:1074500050430B1EA1F10104E1B2F9D110BD0000AF
:1074600008B52BA200210846FDF7ACFE2A4880781B
:1074700028B12AA200213820FDF7A4FE04E028A2AA
:1074800000213820FDF79EFE26A202210020FDF7F4
:1074900099FE102000902048427902231946482086
:1074A000FDF74EFE22A204210020FDF78BFE1A48B4
:1074B000C07A022805D120A204213020FDF782FEE7
:1074C00011E01548C07A012805D11DA20421302001
:1074D000FDF778FE07E01048C07A20B91AA204210F
:1074E0003020FDF76FFE1AA206210020FDF76AFE8C
:1074F0000948807B28B109A206213820FDF762FEE9
:1075000004E007A206213820FDF75CFE08BD00005C
:10751000506F7765723A2000120000206F6E2000D5
:107520006F66660054656D707365743A20000000E4
:107530004D6F64653A2000006C6F772020200000BA
:107540006D6964646C6500006869676820200000EC
:107550004C696768743A200070B500240CA0FFF7EE
:1075600065FF85B22A460AA1204600F01FF8C4B282
:107570000CA0FFF75BFF85B22A460AA1204600F067
:1075800015F8C4B22146012000F008F970BD0000D2
:107590007A476C3346584D4144454D4264666374A6
:1075A00000000000312E302E300000002DE9F041A7
:1075B00004460E461546064807192A4631463846FF
:1075C000FFF712FF601984B22046BDE8F081000089
:1075D00050020020024B1A181170431C98B27047D9
:1075E0005002002014490968144A1268914206D9D1
:1075F00011490968114A1268891A87291BD20E4954
:1076000009680E4A1268914205D20C4909680A4A73
:107610001268891A0FD008490A6809498A4202D3B8
:107620008739054A116004490968087002490968E8
:10763000491C014A116070472400002028000020E6
:107640001701002001B501216846FDF7FDFA08BDCC
:1076500004480549086005490860FF20044908708E
:107660007047000090000020240000202800002027
:107670002F00002008B901B100BF704770B5002489
:10768000002509E0FDF710FE39490A880988491CE0
:10769000374B19803749885435480088B0F5997FB1
:1076A00003D8FFF7E7FC0028ECDC31480088072806
:1076B00000DA70BD43E02F48005D552802D0601C01
:1076C00084B23CE02B49601C085CAA2802D0601CF4
:1076D00084B234E02749A01C085C10B1A01C84B21D
:1076E0002DE02449201D085C4FF6FF7101EA0025BA
:1076F0002049601D085CC01D284485B2B5F59D7FFA
:1077000002D9E01C84B21AE019480088001BA84284
:1077100000DA19E06A1E91B2164A1019FFF77AFCD6
:107720006119491E134A515C884202D0E01C84B2A0
:1077300005E02046FFF746FA601984B200BF0C4806
:107740000088001B0728B6DA00BF09480088001B24
:107750000749088008460088002806DD0548011909
:10776000034802880348FFF73FFE00BFA1E700007F
:10777000100000201701002070B504460D4604B12A
:1077800005B970BD03E02078FFF75CFF641C281E7C
:10779000A5F101018DB2F6D100BFF2E770B5054643
:1077A0000C46002655200D490870AA20487001207B
:1077B00088700846C570201208714C71E01D84B2B3
:1077C000601E81B20548FFF725FC0646601E03498E
:1077D0000E5421460148FFF7CFFF70BD4A0200203A
:1077E000007FFF030003050911FF118905C300E0B5
:1077F00000F000F8000000000000004428FF11AA7B
:107800004400000000000000000000000000000034
:107810000000000000000000000000000000000068
:107820000000000000000000000000000000000058
:1078300000000000000000000000000000008301C4
:107840003844829292740183000000000000007CA2
:1078500044FF017D7D7D017D7D7D7D017D7D7D7D83
:107860007D01FF0000000000000100010001000197
:107870000001000100000000000000000001010004
:1078800000000000000000000000000000000000F8
:1078900000000000000000000000000000000000E8
:1078A00000000000000000000000000000000000D8
:1078B00000000000000000000000000000000101C6
:1078C00000000000000001010000000000000000B6
:1078D0000001010101010101010101010101010199
:1078E0000101010000000000000000000000000095
:1078F0000000000000000000000000000000000088
:107900003F3F0303F31311111111111101F1116123
:1079100081010101816111F1010101014141F10187
:1079200001010101C1211111111121C10101010147
:107930004141F10101010101010101010111111197
:107940001111D33303033F3F00000000000000008B
:107950000000000000000000000000000000000027
:107960000000000000000000000000000000000017
:107970000000000000000000000000000000000007
:10798000E0E000007F01010101010100007F000033
:10799000010618060100007F0000000040407F4003
:1079A000400000001F2040404040201F0000000019
:1079B00040407F4040000000006000000000403078
:1079C0000C0300000000E0E00000000000000000E8
:1079D00000000000000000000000000000000000A7
:1079E0000000000000000000000000000000000097
:1079F0000000000000000000000000000000000087
:107A00000707060606060404048444444484040468
:107A1000844444448404040484C404040404844466
:107A20004444840404040404844444448404040456
:107A30000404844444448404048444444484040486
:107A40000404060606060707000000000000000008
:107A50000000000000000000000000000000000026
:107A60000000000000000000000000000000000016
:107A70000000000000000000000000000000000006
:107A80000000000000000000001018141211000097
:107A90000F1010100F000000101F10000000081041
:107AA00012120D00001800000D1212120D00001825
:107AB0000000101814121100001018141211000008
:107AC00000000000000000000000000000000000B6
:107AD00000000000000000000000000000000000A6
:107AE0000000000000000000000000000000000096
:107AF0000000000000000000000000000000000086
:107B00000000000000000000000000000000000075
:107B10000000000000000000000000000000000065
:107B20008080808080808080000000000000000055
:107B30000000000000000000000000000000000045
:107B40000000000000000000000000000000000035
:107B50000000000000000000000000000000000025
:107B600000000000007F030C300C037F000038543D
:107B7000545800007C04047800003C40407C000025
:107B800000000000000000000000000000000000F5
:107B900000000000000000000000000000000000E5
:107BA000FFAAAAAA280800FF0000000000000000A9
:107BB00000000000000000000000000000000000C5
:107BC000000000000000000000000000007F030C27
:107BD000300C037F0000264949493200007F02042F
:107BE00008107F000003050911FF118905C300E09B
:107BF00000F000F8000000000000004428FF11AA77
:107C00004400000000000000000000000000000030
:107C10000000000000000000000000000000000064
:107C20000000000000000000000000000000000054
:107C300000000000000000000000000000008301C0
:107C40003844829292740183000000000000007C9E
:107C500044FF017D7D7D7D017D7D7D7D017D7D7D7F
:107C60007D01FF0000000000000100010001000193
:107C70000001000100000000000000000001010000
:107C800000000000000000000000000000000000F4
:107C900000000000000000000000000000000000E4
:107CA00000000000000000000000000000000000D4
:107CB00000000000000000000000000000000101C2
:107CC00000000000000001010000000000000000B2
:107CD0000001010101010101010101010101010195
:107CE0000101010000000000000000000000000091
:107CF0000000000000000000000000000000000084
:107D0000000000F80808080808080800F818608053
:107D1000000000806018F80000002020F80000003B
:107D2000000000E0100808080810E0000000202013
:107D3000F800000000000000000000000008080833
:107D4000080888681800000000000000000000001B
:107D50000000000000000000000000000000000023
:107D60000000000000000000000000000000000013
:107D70000000000000000000000000000000000003
:107D80000000007F01010101010100007F000001EE
:107D90000618060100007F00000040407F404000C0
:107DA0000000001F2040404040201F0000004040D5
:107DB0007F40400000000000600000000000006004
:107DC0001806010000000000000000000000000094
:107DD00000000000000000000000000000000000A3
:107DE0000000000000000000000000000000000093
:107DF0000000000000000000000000000000000083
:107E000000000000000000000040202020C0000012
:107E1000E0202020E000000040E0000000006020A2
:107E20002020E00000000000E0202020E000000012
:107E3000000040202020C0000040202020C0000082
:107E40000000000000000000000000000000000032
:107E50000000000000000000000000000000000022
:107E60000000000000000000000000000000000012
:107E70000000000000000000000000000000000002
:107E80000000000000000000000C0A0A090C0000BD
:107E90000F0808080F000000080F080000000C0879
:107EA00009090E00000C00000F0909090F00000C61
:107EB00000000C0A0A090C00000C0A0A090C000058
:107EC00000000000000000000000000000000000B2
:107ED00000000000000000000000000000000000A2
:107EE0000000000000000000000000000000000092
:107EF0000000000000000000000000000000000082
:107F00000000000000000000000000000000000071
:107F10000000000000000000000000000000000061
:107F20008080808080808080000000000000000051
:107F30000000000000000000000000000000000041
:107F40000000000000000000000000000000000031
:107F50000000000000000000000000000000000021
:107F600000000000007F030C300C037F0000385439
:107F7000545800007C04047800003C40407C000021
:107F800000000000000000000000000000000000F1
:107F900000000000000000000000000000000000E1
:107FA000FFAAAAAA280800FF0000000000000000A5
:107FB00000000000000000000000000000000000C1
:107FC000000000000000000000000000007F030C23
:107FD000300C037F0000264949493200007F02042B
:107FE00008107F000000000000000000002F0000CB
:107FF00000000700070000147F147F1400242A7F6C
:108000002A120062640813230036495522500000EA
:108010000503000000001C224100000041221C005A
:108020000014083E08140008083E0808000000A0DC
:1080300060000008080808080000606000000020D8
:1080400010080402003E5149453E0000427F4000B6
:10805000004261514946002141454B31001814123C
:108060007F10002745454539003C4A494930000109
:108070007109050300364949493600064949291E58
:1080800000003636000000005636000000081422BA
:1080900041000014141414140000412214080002BA
:1080A0000151090600324959513E007C1211127CDF
:1080B000007F49494936003E41414122007F41410C
:1080C000221C007F49494941007F09090901003EFE
:1080D0004149497A007F0808087F0000417F41003C
:1080E000002040413F01007F08142241007F4040B2
:1080F0004040007F020C027F007F0408107F003E9A
:108100004141413E007F09090906003E4151215E7F
:10811000007F091929460046494949310001017F7C
:108120000101003F4040403F001F2040201F003F12
:108130004038403F006314081463000708700807C4
:1081400000615149454300007F41410000552A55D7
:108150002A55000041417F00000402010204004052
:108160004040404000000102040000205454547874
:10817000007F484444380038444444200038444494
:10818000487F00385454541800087E090102001832
:10819000A4A4A47C007F080404780000447D40006F
:1081A000004080847D00007F102844000000417F53
:1081B0004000007C04180478007C0804047800382F
:1081C0004444443800FC242424180018242418FCB7
:1081D000007C0804040800485454542000043F4420
:1081E0004020003C4040207C001C2040201C003CE3
:1081F0004030403C004428102844001CA0A0A07C33
:10820000004464544C44141414141414000000006A
:10821000000000000000000000000000000000F866
:1082200000000000000000333000000000100C06C9
:10823000100C0600000000000000000040C0784064
:10824000C0784000043F04043F040400007088FC30
:1082500008300000001820FF211E0000F008F00088
:10826000E018000000211C031E211E0000F00888F9
:10827000700000001E2123241927211010160E0063
:10828000000000000000000000000000000000E00E
:108290001804020000000007182040000002041823
:1082A000E00000000040201807000000404080F07F
:1082B000804040000202010F01020200000000F0B5
:1082C000000000000101011F010101000000000089
:1082D0000000000080B070000000000000000000FE
:1082E0000000000000010101010101010000000087
:1082F000000000000030300000000000000000001E
:1083000080601804006018060100000000E01008FA
:108310000810E000000F102020100F00001010F8CF
:10832000000000000020203F20200000007008080E
:10833000088870000030282422213000003008888E
:10834000884830000018202020110E000000C020B6
:1083500010F8000000070424243F240000F80888D7
:10836000880808000019212020110E0000E0108864
:1083700088180000000F112020110E000038080896
:10838000C83808000000003F0000000000708808A6
:1083900008887000001C222121221C0000E0100827
:1083A0000810E0000000312222110F00000000C080
:1083B000C00000000000003030000000000000801D
:1083C000000000000000806000000000000080400D
:1083D0002010080000010204081020004040404026
:1083E0004040400004040404040404000008102079
:1083F00040800000002010080402010000704808BE
:108400000808F0000000003036010000C030C82825
:10841000E810E0000718272423140B000000C038E0
:10842000E0000000203C23020227382008F888885A
:1084300088700000203F202020110E00C030080866
:1084400008083800071820202010080008F808083D
:108450000810E000203F202020100F0008F8888836
:10846000E8081000203F20202320180008F8888802
:10847000E8081000203F200003000000C03008087A
:108480000838000007182020221E020008F8080003
:108490000008F808203F210101213F20000808F8CA
:1084A000080800000020203F2020000000000808ED
:1084B000F8080800C08080807F00000008F888C0AD
:1084C00028180800203F20012638200008F808005E
:1084D00000000000203F20202020300008F8F80095
:1084E000F8F80800203F003F003F200008F830C0A7
:1084F0000008F808203F200007183F00E010080897
:108500000810E0000F10202020100F0008F80808C5
:108510000808F000203F210101010000E0100808D8
:108520000810E0000F18242438504F0008F88888FD
:1085300088887000203F2000030C302000708808DD
:10854000080838000038202121221C00180808F8EB
:10855000080818000000203F2000000008F808006C
:108560000008F808001F202020201F00087888003D
:1085700000C83808000007380E010000F80800F8AD
:108580000008F800033C0700073C03000818688057
:108590008068180820302C03032C30200838C800CD
:1085A000C83808000000203F20000000100808081C
:1085B000C83808002038262120201800000000FEBE
:1085C000020202000000007F40404000000C30C06A
:1085D00000000000000000010638C0000002020296
:1085E000FE000000004040407F0000000000040248
:1085F0000202040000000000000000000000000073
:108600000000000080808080808080800002020462
:10861000000000000000000000000000000080805A
:10862000808000000019242222223F2008F80080C8
:1086300080000000003F112020110E00000000808B
:1086400080800000000E112020201100000000801A
:108650008088F800000E112020103F20000080804C
:1086600080800000001F222222221300008080F060
:10867000888888180020203F20200000000080808B
:1086800080808000006B94949493600008F80080D0
:1086900080800000203F210000203F20008098982B
:1086A000000000000020203F20200000000000808B
:1086B0009898000000C08080807F000008F80000CB
:1086C00080808000203F24022D302000000808F820
:1086D000000000000020203F2020000080808080DB
:1086E00080808000203F20003F20003F808000806D
:1086F00080800000203F210000203F20000080807B
:1087000080800000001F202020201F00808000802B
:108710008000000080FFA12020110E0000000080DA
:1087200080808000000E112020A0FF8080808000CB
:108730008080800020203F212000010000008080F8
:10874000808080000033242424241900008080E0ED
:10875000808000000000001F2020000080800000BA
:1087600000808000001F202020103F20808080009B
:108770000080808000010E300806010080800080AB
:10878000008080800F300C030C300F0000808000D0
:10879000808080000020312E0E31200080808000FB
:1087A0000080808080818E701806010000808080AB
:1087B000808080000021302C222130000000000049
:1087C000807C020200000000003F404000000000EA
:1087D000FF00000000000000FF0000000002027C1B
:1087E000800000000040403F000000000006010142
:1087F0000202040400000000000000000000F0106D
:10880000101010FF10101010F00000000000000009
:1088100000000000000000000000000000000F0445
:10882000040404FF040404040F000000000000001E
:108830000000000000000000000000004040405F19
:10884000555555755555555F404040000000000096
:108850000000000000000000000000000040200FA9
:10886000094989790909090F20400000000000002A
:1088700000000000000000000000000000FE0242B6
:108880004ACA4A4ACA4A4A4202FE000000000000A0
:1088900000000000000000000000000000FF405049
:1088A0004C4340404F50505C40FF0000000000002F
:1088B0000000000000000000000000000000F88838
:1088C000888888FF88888888F800000000000000F9
:1088D00000000000000000000000000000001F0871
:1088E0000808087F888888889F80F00000000000C2
:1088F0000000000000000000000000008082828272
:10890000828282E2A2928A86828080000000000039
:108910000000000000000000000000000000000057
:108920000040807F00000000000000000000000008
:108930000000000000000000000000002424A4FE4D
:10894000A3220022CC0000FF000000000000000075
:10895000000000000000000000000000080601FF09
:1089600000010404040404FF0202020000000000ED
:10897000000000000000000000000000101010FFC8
:10898000109008888888FF88888808000000000008
:108990000000000000000000000000000444827F8E
:1089A00001808040432C1028468180000000000098
:1089B000000000000000000000000000DC8900084A
:1089C000000000206C00000088620008488A00084F
:1089D0006C000020140800009862000800000000ED
:1089E0000102030401020304060708090000010153
:1089F000000202190302160404000901000C05001C
:108A00000000000000000000000000000000000066
:108A10000000000000000000000000000000000056
:108A20000000000000000000000000000000000046
:108A300000400000000000000000000000000000F6
:088A400000000000000000002E
:040000050800418925
:00000001FF
